:030000000200A15A
:0C00A100787FE4F6D8FD75810E0200E8BF
:10023600496E697469616C6973696E672E2E2E2E1C
:10024600002044697374616E63652069733D200004
:03025600636D00D5
:0402A400020800004C
:0801C400C2A1D2A27F017E005E
:1001CC00E4FDFCC3ED9FEC9E5015E4FBFA0BBB0069
:0F01DC00010ABA04F8BBFBF50DBD00010C80E46D
:0101EB0022F1
:0B029900000000000000000000002238
:1001EC00D2B3120299C2B330B2FD20B2FD858C831A
:1001FC00858A82758AFF758CFFAF82AE837C007D09
:04020C003B1201465A
:0102100022CB
:02025900A907F3
:10025B00E954F0F5A0C2A01201C4C2A2E9C454F043
:0F026B00F5A0C2A0C2A1D2A27F011201CCC2A2F3
:01027A002261
:07019B00120146EF2430FFC2
:0201A200A907AB
:1001A400E954F0F5A0D2A01201C4C2A2E9C454F0EB
:0F01B400F5A0D2A0C2A1D2A27F011201CCC2A29B
:0101C3002219
:100211008B0C8A0D890EAB0CAA0DA90E12012D6053
:1002210013050EE50E7002050D14F912012DFF12D2
:0502310001A280E222A1
:10027B007F331202597F321202597F281202597FA3
:0E028B00061202597F0C1202597F010202591D
:1000030012027B7F801202597BFF7A027936120239
:10001300117F647E001201CCC2B3758909E4F58AAD
:10002300F58CD28CD2B212027B7F801202597BFFF5
:100033007A0279471202111201EC7508008F097FC9
:10004300C4120259AE08AF097C007D6412019BAE55
:1000530008AF097C007D641201467E007F0ACFCD84
:10006300CFCECCCE12019BAE08AF097C007D6412CB
:1000730001467E007F0ACFCDCFCECCCE120146ED16
:100083002430FF1201A27FC71202597BFF7A027943
:0E009300561202117F647E001201CC02002979
:1000AD00020003E493A3F8E493A34003F68001F266
:1000BD0008DFF48029E493A3F85407240CC8C33354
:1000CD00C4540F4420C8834004F456800146F6DF23
:1000DD00E4800B01020408102040809002A4E47E0D
:1000ED00019360BCA3FF543F30E509541FFEE49318
:1000FD00A360010ECF54C025E060A840B8E493A3DF
:10010D00FAE493A3F8E493A3C8C582C8CAC583CA09
:10011D00F0A3C8C582C8CAC583CADFE9DEE780BEC1
:0102A8000055
:10012D00BB010689828A83E0225002E722BBFE02D0
:09013D00E32289828A83E4932203
:10014600BC000BBE0029EF8DF084FFADF022E4CC9D
:10015600F875F008EF2FFFEE33FEEC33FCEE9DEC66
:10016600984005FCEE9DFE0FD5F0E9E4CEFD22EDAC
:10017600F8F5F0EE8420D21CFEADF075F008EF2FF6
:10018600FFED33FD4007985006D5F0F222C398FDE7
:050196000FD5F0EA2284
:00000001FF
